{
  "_format": "hh-sol-artifact-1",
  "contractName": "SimpleToken",
  "sourceName": "contracts/SimpleToken.sol",
  "abi": [
    {
      "inputs": [
        {
          "internalType": "string",
          "name": "name",
          "type": "string"
        },
        {
          "internalType": "string",
          "name": "symbol",
          "type": "string"
        },
        {
          "internalType": "uint256",
          "name": "initialSupply",
          "type": "uint256"
        }
      ],
      "stateMutability": "nonpayable",
      "type": "constructor"
    },
    {
      "inputs": [
        {
          "internalType": "address",
          "name": "spender",
          "type": "address"
        },
        {
          "internalType": "uint256",
          "name": "allowance",
          "type": "uint256"
        },
        {
          "internalType": "uint256",
          "name": "needed",
          "type": "uint256"
        }
      ],
      "name": "ERC20InsufficientAllowance",
      "type": "error"
    },
    {
      "inputs": [
        {
          "internalType": "address",
          "name": "sender",
          "type": "address"
        },
        {
          "internalType": "uint256",
          "name": "balance",
          "type": "uint256"
        },
        {
          "internalType": "uint256",
          "name": "needed",
          "type": "uint256"
        }
      ],
      "name": "ERC20InsufficientBalance",
      "type": "error"
    },
    {
      "inputs": [
        {
          "internalType": "address",
          "name": "approver",
          "type": "address"
        }
      ],
      "name": "ERC20InvalidApprover",
      "type": "error"
    },
    {
      "inputs": [
        {
          "internalType": "address",
          "name": "receiver",
          "type": "address"
        }
      ],
      "name": "ERC20InvalidReceiver",
      "type": "error"
    },
    {
      "inputs": [
        {
          "internalType": "address",
          "name": "sender",
          "type": "address"
        }
      ],
      "name": "ERC20InvalidSender",
      "type": "error"
    },
    {
      "inputs": [
        {
          "internalType": "address",
          "name": "spender",
          "type": "address"
        }
      ],
      "name": "ERC20InvalidSpender",
      "type": "error"
    },
    {
      "inputs": [
        {
          "internalType": "address",
          "name": "owner",
          "type": "address"
        }
      ],
      "name": "OwnableInvalidOwner",
      "type": "error"
    },
    {
      "inputs": [
        {
          "internalType": "address",
          "name": "account",
          "type": "address"
        }
      ],
      "name": "OwnableUnauthorizedAccount",
      "type": "error"
    },
    {
      "anonymous": false,
      "inputs": [
        {
          "indexed": true,
          "internalType": "address",
          "name": "owner",
          "type": "address"
        },
        {
          "indexed": true,
          "internalType": "address",
          "name": "spender",
          "type": "address"
        },
        {
          "indexed": false,
          "internalType": "uint256",
          "name": "value",
          "type": "uint256"
        }
      ],
      "name": "Approval",
      "type": "event"
    },
    {
      "anonymous": false,
      "inputs": [
        {
          "indexed": true,
          "internalType": "address",
          "name": "user",
          "type": "address"
        },
        {
          "indexed": false,
          "internalType": "uint256",
          "name": "amount",
          "type": "uint256"
        }
      ],
      "name": "FaucetUsed",
      "type": "event"
    },
    {
      "anonymous": false,
      "inputs": [
        {
          "indexed": true,
          "internalType": "address",
          "name": "previousOwner",
          "type": "address"
        },
        {
          "indexed": true,
          "internalType": "address",
          "name": "newOwner",
          "type": "address"
        }
      ],
      "name": "OwnershipTransferred",
      "type": "event"
    },
    {
      "anonymous": false,
      "inputs": [
        {
          "indexed": true,
          "internalType": "address",
          "name": "from",
          "type": "address"
        },
        {
          "indexed": true,
          "internalType": "address",
          "name": "to",
          "type": "address"
        },
        {
          "indexed": false,
          "internalType": "uint256",
          "name": "value",
          "type": "uint256"
        }
      ],
      "name": "Transfer",
      "type": "event"
    },
    {
      "inputs": [],
      "name": "FAUCET_AMOUNT",
      "outputs": [
        {
          "internalType": "uint256",
          "name": "",
          "type": "uint256"
        }
      ],
      "stateMutability": "view",
      "type": "function"
    },
    {
      "inputs": [],
      "name": "FAUCET_COOLDOWN",
      "outputs": [
        {
          "internalType": "uint256",
          "name": "",
          "type": "uint256"
        }
      ],
      "stateMutability": "view",
      "type": "function"
    },
    {
      "inputs": [
        {
          "internalType": "address",
          "name": "owner",
          "type": "address"
        },
        {
          "internalType": "address",
          "name": "spender",
          "type": "address"
        }
      ],
      "name": "allowance",
      "outputs": [
        {
          "internalType": "uint256",
          "name": "",
          "type": "uint256"
        }
      ],
      "stateMutability": "view",
      "type": "function"
    },
    {
      "inputs": [
        {
          "internalType": "address",
          "name": "spender",
          "type": "address"
        },
        {
          "internalType": "uint256",
          "name": "value",
          "type": "uint256"
        }
      ],
      "name": "approve",
      "outputs": [
        {
          "internalType": "bool",
          "name": "",
          "type": "bool"
        }
      ],
      "stateMutability": "nonpayable",
      "type": "function"
    },
    {
      "inputs": [
        {
          "internalType": "address",
          "name": "account",
          "type": "address"
        }
      ],
      "name": "balanceOf",
      "outputs": [
        {
          "internalType": "uint256",
          "name": "",
          "type": "uint256"
        }
      ],
      "stateMutability": "view",
      "type": "function"
    },
    {
      "inputs": [],
      "name": "decimals",
      "outputs": [
        {
          "internalType": "uint8",
          "name": "",
          "type": "uint8"
        }
      ],
      "stateMutability": "view",
      "type": "function"
    },
    {
      "inputs": [],
      "name": "faucet",
      "outputs": [],
      "stateMutability": "nonpayable",
      "type": "function"
    },
    {
      "inputs": [
        {
          "internalType": "address",
          "name": "user",
          "type": "address"
        }
      ],
      "name": "getFaucetCooldown",
      "outputs": [
        {
          "internalType": "uint256",
          "name": "",
          "type": "uint256"
        }
      ],
      "stateMutability": "view",
      "type": "function"
    },
    {
      "inputs": [
        {
          "internalType": "address",
          "name": "",
          "type": "address"
        }
      ],
      "name": "lastFaucetTime",
      "outputs": [
        {
          "internalType": "uint256",
          "name": "",
          "type": "uint256"
        }
      ],
      "stateMutability": "view",
      "type": "function"
    },
    {
      "inputs": [
        {
          "internalType": "address",
          "name": "to",
          "type": "address"
        },
        {
          "internalType": "uint256",
          "name": "amount",
          "type": "uint256"
        }
      ],
      "name": "mint",
      "outputs": [],
      "stateMutability": "nonpayable",
      "type": "function"
    },
    {
      "inputs": [],
      "name": "name",
      "outputs": [
        {
          "internalType": "string",
          "name": "",
          "type": "string"
        }
      ],
      "stateMutability": "view",
      "type": "function"
    },
    {
      "inputs": [],
      "name": "owner",
      "outputs": [
        {
          "internalType": "address",
          "name": "",
          "type": "address"
        }
      ],
      "stateMutability": "view",
      "type": "function"
    },
    {
      "inputs": [],
      "name": "renounceOwnership",
      "outputs": [],
      "stateMutability": "nonpayable",
      "type": "function"
    },
    {
      "inputs": [],
      "name": "symbol",
      "outputs": [
        {
          "internalType": "string",
          "name": "",
          "type": "string"
        }
      ],
      "stateMutability": "view",
      "type": "function"
    },
    {
      "inputs": [],
      "name": "totalSupply",
      "outputs": [
        {
          "internalType": "uint256",
          "name": "",
          "type": "uint256"
        }
      ],
      "stateMutability": "view",
      "type": "function"
    },
    {
      "inputs": [
        {
          "internalType": "address",
          "name": "to",
          "type": "address"
        },
        {
          "internalType": "uint256",
          "name": "value",
          "type": "uint256"
        }
      ],
      "name": "transfer",
      "outputs": [
        {
          "internalType": "bool",
          "name": "",
          "type": "bool"
        }
      ],
      "stateMutability": "nonpayable",
      "type": "function"
    },
    {
      "inputs": [
        {
          "internalType": "address",
          "name": "from",
          "type": "address"
        },
        {
          "internalType": "address",
          "name": "to",
          "type": "address"
        },
        {
          "internalType": "uint256",
          "name": "value",
          "type": "uint256"
        }
      ],
      "name": "transferFrom",
      "outputs": [
        {
          "internalType": "bool",
          "name": "",
          "type": "bool"
        }
      ],
      "stateMutability": "nonpayable",
      "type": "function"
    },
    {
      "inputs": [
        {
          "internalType": "address",
          "name": "newOwner",
          "type": "address"
        }
      ],
      "name": "transferOwnership",
      "outputs": [],
      "stateMutability": "nonpayable",
      "type": "function"
    }
  ],
  "bytecode": "0x608060405234801561001057600080fd5b50604051611fef380380611fef83398181016040528101906100329190610619565b338383816003908161004491906108bb565b50806004908161005491906108bb565b505050600073ffffffffffffffffffffffffffffffffffffffff168173ffffffffffffffffffffffffffffffffffffffff16036100c95760006040517f1e4fbdf70000000000000000000000000000000000000000000000000000000081526004016100c091906109ce565b60405180910390fd5b6100d8816100fb60201b60201c565b5060008111156100f3576100f233826101c160201b60201c565b5b505050610aad565b6000600560009054906101000a900473ffffffffffffffffffffffffffffffffffffffff16905081600560006101000a81548173ffffffffffffffffffffffffffffffffffffffff021916908373ffffffffffffffffffffffffffffffffffffffff1602179055508173ffffffffffffffffffffffffffffffffffffffff168173ffffffffffffffffffffffffffffffffffffffff167f8be0079c531659141344cd1fd0a4f28419497f9722a3daafe3b4186f6b6457e060405160405180910390a35050565b600073ffffffffffffffffffffffffffffffffffffffff168273ffffffffffffffffffffffffffffffffffffffff16036102335760006040517fec442f0500000000000000000000000000000000000000000000000000000000815260040161022a91906109ce565b60405180910390fd5b6102456000838361024960201b60201c565b5050565b600073ffffffffffffffffffffffffffffffffffffffff168373ffffffffffffffffffffffffffffffffffffffff160361029b57806002600082825461028f9190610a18565b9250508190555061036e565b60008060008573ffffffffffffffffffffffffffffffffffffffff1673ffffffffffffffffffffffffffffffffffffffff16815260200190815260200160002054905081811015610327578381836040517fe450d38c00000000000000000000000000000000000000000000000000000000815260040161031e93929190610a5b565b60405180910390fd5b8181036000808673ffffffffffffffffffffffffffffffffffffffff1673ffffffffffffffffffffffffffffffffffffffff16815260200190815260200160002081905550505b600073ffffffffffffffffffffffffffffffffffffffff168273ffffffffffffffffffffffffffffffffffffffff16036103b75780600260008282540392505081905550610404565b806000808473ffffffffffffffffffffffffffffffffffffffff1673ffffffffffffffffffffffffffffffffffffffff168152602001908152602001600020600082825401925050819055505b8173ffffffffffffffffffffffffffffffffffffffff168373ffffffffffffffffffffffffffffffffffffffff167fddf252ad1be2c89b69c2b068fc378daa952ba7f163c4a11628f55a4df523b3ef836040516104619190610a92565b60405180910390a3505050565b6000604051905090565b600080fd5b600080fd5b600080fd5b600080fd5b6000601f19601f8301169050919050565b7f4e487b7100000000000000000000000000000000000000000000000000000000600052604160045260246000fd5b6104d58261048c565b810181811067ffffffffffffffff821117156104f4576104f361049d565b5b80604052505050565b600061050761046e565b905061051382826104cc565b919050565b600067ffffffffffffffff8211156105335761053261049d565b5b61053c8261048c565b9050602081019050919050565b60005b8381101561056757808201518184015260208101905061054c565b60008484015250505050565b600061058661058184610518565b6104fd565b9050828152602081018484840111156105a2576105a1610487565b5b6105ad848285610549565b509392505050565b600082601f8301126105ca576105c9610482565b5b81516105da848260208601610573565b91505092915050565b6000819050919050565b6105f6816105e3565b811461060157600080fd5b50565b600081519050610613816105ed565b92915050565b60008060006060848603121561063257610631610478565b5b600084015167ffffffffffffffff8111156106505761064f61047d565b5b61065c868287016105b5565b935050602084015167ffffffffffffffff81111561067d5761067c61047d565b5b610689868287016105b5565b925050604061069a86828701610604565b9150509250925092565b600081519050919050565b7f4e487b7100000000000000000000000000000000000000000000000000000000600052602260045260246000fd5b600060028204905060018216806106f657607f821691505b602082108103610709576107086106af565b5b50919050565b60008190508160005260206000209050919050565b60006020601f8301049050919050565b600082821b905092915050565b6000600883026107717fffffffffffffffffffffffffffffffffffffffffffffffffffffffffffffffff82610734565b61077b8683610734565b95508019841693508086168417925050509392505050565b6000819050919050565b60006107b86107b36107ae846105e3565b610793565b6105e3565b9050919050565b6000819050919050565b6107d28361079d565b6107e66107de826107bf565b848454610741565b825550505050565b600090565b6107fb6107ee565b6108068184846107c9565b505050565b5b8181101561082a5761081f6000826107f3565b60018101905061080c565b5050565b601f82111561086f576108408161070f565b61084984610724565b81016020851015610858578190505b61086c61086485610724565b83018261080b565b50505b505050565b600082821c905092915050565b600061089260001984600802610874565b1980831691505092915050565b60006108ab8383610881565b9150826002028217905092915050565b6108c4826106a4565b67ffffffffffffffff8111156108dd576108dc61049d565b5b6108e782546106de565b6108f282828561082e565b600060209050601f8311600181146109255760008415610913578287015190505b61091d858261089f565b865550610985565b601f1984166109338661070f565b60005b8281101561095b57848901518255600182019150602085019450602081019050610936565b868310156109785784890151610974601f891682610881565b8355505b6001600288020188555050505b505050505050565b600073ffffffffffffffffffffffffffffffffffffffff82169050919050565b60006109b88261098d565b9050919050565b6109c8816109ad565b82525050565b60006020820190506109e360008301846109bf565b92915050565b7f4e487b7100000000000000000000000000000000000000000000000000000000600052601160045260246000fd5b6000610a23826105e3565b9150610a2e836105e3565b9250828201905080821115610a4657610a456109e9565b5b92915050565b610a55816105e3565b82525050565b6000606082019050610a7060008301866109bf565b610a7d6020830185610a4c565b610a8a6040830184610a4c565b949350505050565b6000602082019050610aa76000830184610a4c565b92915050565b61153380610abc6000396000f3fe608060405234801561001057600080fd5b50600436106101165760003560e01c80637bc1f6cc116100a2578063a9059cbb11610071578063a9059cbb146102d3578063dd62ed3e14610303578063dd7b49f914610333578063de5f72fd14610363578063f2fde38b1461036d57610116565b80637bc1f6cc146102495780637d1d5d19146102795780638da5cb5b1461029757806395d89b41146102b557610116565b8063313ce567116100e9578063313ce567146101b757806340c10f19146101d557806370a08231146101f1578063715018a614610221578063766976401461022b57610116565b806306fdde031461011b578063095ea7b31461013957806318160ddd1461016957806323b872dd14610187575b600080fd5b610123610389565b60405161013091906110c1565b60405180910390f35b610153600480360381019061014e919061117c565b61041b565b60405161016091906111d7565b60405180910390f35b61017161043e565b60405161017e9190611201565b60405180910390f35b6101a1600480360381019061019c919061121c565b610448565b6040516101ae91906111d7565b60405180910390f35b6101bf610477565b6040516101cc919061128b565b60405180910390f35b6101ef60048036038101906101ea919061117c565b610480565b005b61020b600480360381019061020691906112a6565b610496565b6040516102189190611201565b60405180910390f35b6102296104de565b005b6102336104f2565b6040516102409190611201565b60405180910390f35b610263600480360381019061025e91906112a6565b6104ff565b6040516102709190611201565b60405180910390f35b610281610517565b60405161028e9190611201565b60405180910390f35b61029f61051e565b6040516102ac91906112e2565b60405180910390f35b6102bd610548565b6040516102ca91906110c1565b60405180910390f35b6102ed60048036038101906102e8919061117c565b6105da565b6040516102fa91906111d7565b60405180910390f35b61031d600480360381019061031891906112fd565b6105fd565b60405161032a9190611201565b60405180910390f35b61034d600480360381019061034891906112a6565b610684565b60405161035a9190611201565b60405180910390f35b61036b6106fd565b005b610387600480360381019061038291906112a6565b61083d565b005b6060600380546103989061136c565b80601f01602080910402602001604051908101604052809291908181526020018280546103c49061136c565b80156104115780601f106103e657610100808354040283529160200191610411565b820191906000526020600020905b8154815290600101906020018083116103f457829003601f168201915b5050505050905090565b6000806104266108c3565b90506104338185856108cb565b600191505092915050565b6000600254905090565b6000806104536108c3565b90506104608582856108dd565b61046b858585610972565b60019150509392505050565b60006012905090565b610488610a66565b6104928282610aed565b5050565b60008060008373ffffffffffffffffffffffffffffffffffffffff1673ffffffffffffffffffffffffffffffffffffffff168152602001908152602001600020549050919050565b6104e6610a66565b6104f06000610b6f565b565b68056bc75e2d6310000081565b60066020528060005260406000206000915090505481565b6201518081565b6000600560009054906101000a900473ffffffffffffffffffffffffffffffffffffffff16905090565b6060600480546105579061136c565b80601f01602080910402602001604051908101604052809291908181526020018280546105839061136c565b80156105d05780601f106105a5576101008083540402835291602001916105d0565b820191906000526020600020905b8154815290600101906020018083116105b357829003601f168201915b5050505050905090565b6000806105e56108c3565b90506105f2818585610972565b600191505092915050565b6000600160008473ffffffffffffffffffffffffffffffffffffffff1673ffffffffffffffffffffffffffffffffffffffff16815260200190815260200160002060008373ffffffffffffffffffffffffffffffffffffffff1673ffffffffffffffffffffffffffffffffffffffff16815260200190815260200160002054905092915050565b60008062015180600660008573ffffffffffffffffffffffffffffffffffffffff1673ffffffffffffffffffffffffffffffffffffffff168152602001908152602001600020546106d591906113cc565b90508042106106e85760009150506106f8565b42816106f49190611400565b9150505b919050565b62015180600660003373ffffffffffffffffffffffffffffffffffffffff1673ffffffffffffffffffffffffffffffffffffffff1681526020019081526020016000205461074b91906113cc565b42101561078d576040517f08c379a0000000000000000000000000000000000000000000000000000000008152600401610784906114a6565b60405180910390fd5b42600660003373ffffffffffffffffffffffffffffffffffffffff1673ffffffffffffffffffffffffffffffffffffffff168152602001908152602001600020819055506107e43368056bc75e2d63100000610aed565b3373ffffffffffffffffffffffffffffffffffffffff167fc471df7d13ab46c73ec6eb2da0f35f84077f20d50243ba09a714b82cffc54de968056bc75e2d631000006040516108339190611201565b60405180910390a2565b610845610a66565b600073ffffffffffffffffffffffffffffffffffffffff168173ffffffffffffffffffffffffffffffffffffffff16036108b75760006040517f1e4fbdf70000000000000000000000000000000000000000000000000000000081526004016108ae91906112e2565b60405180910390fd5b6108c081610b6f565b50565b600033905090565b6108d88383836001610c35565b505050565b60006108e984846105fd565b90507fffffffffffffffffffffffffffffffffffffffffffffffffffffffffffffffff81101561096c578181101561095c578281836040517ffb8f41b2000000000000000000000000000000000000000000000000000000008152600401610953939291906114c6565b60405180910390fd5b61096b84848484036000610c35565b5b50505050565b600073ffffffffffffffffffffffffffffffffffffffff168373ffffffffffffffffffffffffffffffffffffffff16036109e45760006040517f96c6fd1e0000000000000000000000000000000000000000000000000000000081526004016109db91906112e2565b60405180910390fd5b600073ffffffffffffffffffffffffffffffffffffffff168273ffffffffffffffffffffffffffffffffffffffff1603610a565760006040517fec442f05000000000000000000000000000000000000000000000000000000008152600401610a4d91906112e2565b60405180910390fd5b610a61838383610e0c565b505050565b610a6e6108c3565b73ffffffffffffffffffffffffffffffffffffffff16610a8c61051e565b73ffffffffffffffffffffffffffffffffffffffff1614610aeb57610aaf6108c3565b6040517f118cdaa7000000000000000000000000000000000000000000000000000000008152600401610ae291906112e2565b60405180910390fd5b565b600073ffffffffffffffffffffffffffffffffffffffff168273ffffffffffffffffffffffffffffffffffffffff1603610b5f5760006040517fec442f05000000000000000000000000000000000000000000000000000000008152600401610b5691906112e2565b60405180910390fd5b610b6b60008383610e0c565b5050565b6000600560009054906101000a900473ffffffffffffffffffffffffffffffffffffffff16905081600560006101000a81548173ffffffffffffffffffffffffffffffffffffffff021916908373ffffffffffffffffffffffffffffffffffffffff1602179055508173ffffffffffffffffffffffffffffffffffffffff168173ffffffffffffffffffffffffffffffffffffffff167f8be0079c531659141344cd1fd0a4f28419497f9722a3daafe3b4186f6b6457e060405160405180910390a35050565b600073ffffffffffffffffffffffffffffffffffffffff168473ffffffffffffffffffffffffffffffffffffffff1603610ca75760006040517fe602df05000000000000000000000000000000000000000000000000000000008152600401610c9e91906112e2565b60405180910390fd5b600073ffffffffffffffffffffffffffffffffffffffff168373ffffffffffffffffffffffffffffffffffffffff1603610d195760006040517f94280d62000000000000000000000000000000000000000000000000000000008152600401610d1091906112e2565b60405180910390fd5b81600160008673ffffffffffffffffffffffffffffffffffffffff1673ffffffffffffffffffffffffffffffffffffffff16815260200190815260200160002060008573ffffffffffffffffffffffffffffffffffffffff1673ffffffffffffffffffffffffffffffffffffffff168152602001908152602001600020819055508015610e06578273ffffffffffffffffffffffffffffffffffffffff168473ffffffffffffffffffffffffffffffffffffffff167f8c5be1e5ebec7d5bd14f71427d1e84f3dd0314c0f7b2291e5b200ac8c7c3b92584604051610dfd9190611201565b60405180910390a35b50505050565b600073ffffffffffffffffffffffffffffffffffffffff168373ffffffffffffffffffffffffffffffffffffffff1603610e5e578060026000828254610e5291906113cc565b92505081905550610f31565b60008060008573ffffffffffffffffffffffffffffffffffffffff1673ffffffffffffffffffffffffffffffffffffffff16815260200190815260200160002054905081811015610eea578381836040517fe450d38c000000000000000000000000000000000000000000000000000000008152600401610ee1939291906114c6565b60405180910390fd5b8181036000808673ffffffffffffffffffffffffffffffffffffffff1673ffffffffffffffffffffffffffffffffffffffff16815260200190815260200160002081905550505b600073ffffffffffffffffffffffffffffffffffffffff168273ffffffffffffffffffffffffffffffffffffffff1603610f7a5780600260008282540392505081905550610fc7565b806000808473ffffffffffffffffffffffffffffffffffffffff1673ffffffffffffffffffffffffffffffffffffffff168152602001908152602001600020600082825401925050819055505b8173ffffffffffffffffffffffffffffffffffffffff168373ffffffffffffffffffffffffffffffffffffffff167fddf252ad1be2c89b69c2b068fc378daa952ba7f163c4a11628f55a4df523b3ef836040516110249190611201565b60405180910390a3505050565b600081519050919050565b600082825260208201905092915050565b60005b8381101561106b578082015181840152602081019050611050565b60008484015250505050565b6000601f19601f8301169050919050565b600061109382611031565b61109d818561103c565b93506110ad81856020860161104d565b6110b681611077565b840191505092915050565b600060208201905081810360008301526110db8184611088565b905092915050565b600080fd5b600073ffffffffffffffffffffffffffffffffffffffff82169050919050565b6000611113826110e8565b9050919050565b61112381611108565b811461112e57600080fd5b50565b6000813590506111408161111a565b92915050565b6000819050919050565b61115981611146565b811461116457600080fd5b50565b60008135905061117681611150565b92915050565b60008060408385031215611193576111926110e3565b5b60006111a185828601611131565b92505060206111b285828601611167565b9150509250929050565b60008115159050919050565b6111d1816111bc565b82525050565b60006020820190506111ec60008301846111c8565b92915050565b6111fb81611146565b82525050565b600060208201905061121660008301846111f2565b92915050565b600080600060608486031215611235576112346110e3565b5b600061124386828701611131565b935050602061125486828701611131565b925050604061126586828701611167565b9150509250925092565b600060ff82169050919050565b6112858161126f565b82525050565b60006020820190506112a0600083018461127c565b92915050565b6000602082840312156112bc576112bb6110e3565b5b60006112ca84828501611131565b91505092915050565b6112dc81611108565b82525050565b60006020820190506112f760008301846112d3565b92915050565b60008060408385031215611314576113136110e3565b5b600061132285828601611131565b925050602061133385828601611131565b9150509250929050565b7f4e487b7100000000000000000000000000000000000000000000000000000000600052602260045260246000fd5b6000600282049050600182168061138457607f821691505b6020821081036113975761139661133d565b5b50919050565b7f4e487b7100000000000000000000000000000000000000000000000000000000600052601160045260246000fd5b60006113d782611146565b91506113e283611146565b92508282019050808211156113fa576113f961139d565b5b92915050565b600061140b82611146565b915061141683611146565b925082820390508181111561142e5761142d61139d565b5b92915050565b7f46617563657420636f6f6c646f776e206e6f74206d65742e205472792061676160008201527f696e206c617465722e0000000000000000000000000000000000000000000000602082015250565b600061149060298361103c565b915061149b82611434565b604082019050919050565b600060208201905081810360008301526114bf81611483565b9050919050565b60006060820190506114db60008301866112d3565b6114e860208301856111f2565b6114f560408301846111f2565b94935050505056fea26469706673582212202c5339cfb81123cb793a1ce1c8ba9e9aca80540b40fc5584a8994c0fd51e516764736f6c634300081c0033",
  "linkReferences": {},
  "deployedLinkReferences": {}
}