{
  "_format": "hh-sol-artifact-1",
  "contractName": "SimpleDEX",
  "sourceName": "contracts/SimpleDEX.sol",
  "abi": [
    {
      "inputs": [
        {
          "internalType": "address",
          "name": "_tokenA",
          "type": "address"
        },
        {
          "internalType": "address",
          "name": "_tokenB",
          "type": "address"
        }
      ],
      "stateMutability": "nonpayable",
      "type": "constructor"
    },
    {
      "inputs": [],
      "name": "DeadlineExceeded",
      "type": "error"
    },
    {
      "inputs": [],
      "name": "InsufficientAmountOut",
      "type": "error"
    },
    {
      "inputs": [],
      "name": "InsufficientLiquidity",
      "type": "error"
    },
    {
      "inputs": [],
      "name": "InvalidToken",
      "type": "error"
    },
    {
      "inputs": [
        {
          "internalType": "address",
          "name": "owner",
          "type": "address"
        }
      ],
      "name": "OwnableInvalidOwner",
      "type": "error"
    },
    {
      "inputs": [
        {
          "internalType": "address",
          "name": "account",
          "type": "address"
        }
      ],
      "name": "OwnableUnauthorizedAccount",
      "type": "error"
    },
    {
      "inputs": [],
      "name": "ReentrancyGuardReentrantCall",
      "type": "error"
    },
    {
      "inputs": [],
      "name": "ZeroAmount",
      "type": "error"
    },
    {
      "anonymous": false,
      "inputs": [
        {
          "indexed": true,
          "internalType": "address",
          "name": "provider",
          "type": "address"
        },
        {
          "indexed": false,
          "internalType": "uint256",
          "name": "amountA",
          "type": "uint256"
        },
        {
          "indexed": false,
          "internalType": "uint256",
          "name": "amountB",
          "type": "uint256"
        }
      ],
      "name": "LiquidityAdded",
      "type": "event"
    },
    {
      "anonymous": false,
      "inputs": [
        {
          "indexed": true,
          "internalType": "address",
          "name": "previousOwner",
          "type": "address"
        },
        {
          "indexed": true,
          "internalType": "address",
          "name": "newOwner",
          "type": "address"
        }
      ],
      "name": "OwnershipTransferred",
      "type": "event"
    },
    {
      "anonymous": false,
      "inputs": [
        {
          "indexed": true,
          "internalType": "address",
          "name": "sender",
          "type": "address"
        },
        {
          "indexed": false,
          "internalType": "uint256",
          "name": "amountIn",
          "type": "uint256"
        },
        {
          "indexed": false,
          "internalType": "uint256",
          "name": "amountOut",
          "type": "uint256"
        },
        {
          "indexed": true,
          "internalType": "address",
          "name": "tokenIn",
          "type": "address"
        },
        {
          "indexed": true,
          "internalType": "address",
          "name": "tokenOut",
          "type": "address"
        }
      ],
      "name": "Swap",
      "type": "event"
    },
    {
      "inputs": [
        {
          "internalType": "uint256",
          "name": "amountADesired",
          "type": "uint256"
        },
        {
          "internalType": "uint256",
          "name": "amountBDesired",
          "type": "uint256"
        }
      ],
      "name": "addLiquidity",
      "outputs": [
        {
          "internalType": "uint256",
          "name": "amountA",
          "type": "uint256"
        },
        {
          "internalType": "uint256",
          "name": "amountB",
          "type": "uint256"
        }
      ],
      "stateMutability": "nonpayable",
      "type": "function"
    },
    {
      "inputs": [
        {
          "internalType": "uint256",
          "name": "amountIn",
          "type": "uint256"
        },
        {
          "internalType": "uint256",
          "name": "reserveIn",
          "type": "uint256"
        },
        {
          "internalType": "uint256",
          "name": "reserveOut",
          "type": "uint256"
        }
      ],
      "name": "getAmountOut",
      "outputs": [
        {
          "internalType": "uint256",
          "name": "amountOut",
          "type": "uint256"
        }
      ],
      "stateMutability": "pure",
      "type": "function"
    },
    {
      "inputs": [
        {
          "internalType": "address",
          "name": "_tokenIn",
          "type": "address"
        }
      ],
      "name": "getPrice",
      "outputs": [
        {
          "internalType": "uint256",
          "name": "",
          "type": "uint256"
        }
      ],
      "stateMutability": "view",
      "type": "function"
    },
    {
      "inputs": [],
      "name": "owner",
      "outputs": [
        {
          "internalType": "address",
          "name": "",
          "type": "address"
        }
      ],
      "stateMutability": "view",
      "type": "function"
    },
    {
      "inputs": [],
      "name": "renounceOwnership",
      "outputs": [],
      "stateMutability": "nonpayable",
      "type": "function"
    },
    {
      "inputs": [],
      "name": "reserveA",
      "outputs": [
        {
          "internalType": "uint256",
          "name": "",
          "type": "uint256"
        }
      ],
      "stateMutability": "view",
      "type": "function"
    },
    {
      "inputs": [],
      "name": "reserveB",
      "outputs": [
        {
          "internalType": "uint256",
          "name": "",
          "type": "uint256"
        }
      ],
      "stateMutability": "view",
      "type": "function"
    },
    {
      "inputs": [
        {
          "internalType": "uint256",
          "name": "amountIn",
          "type": "uint256"
        },
        {
          "internalType": "uint256",
          "name": "minAmountOut",
          "type": "uint256"
        },
        {
          "internalType": "uint256",
          "name": "deadline",
          "type": "uint256"
        }
      ],
      "name": "swapAtoB",
      "outputs": [],
      "stateMutability": "nonpayable",
      "type": "function"
    },
    {
      "inputs": [
        {
          "internalType": "uint256",
          "name": "amountIn",
          "type": "uint256"
        },
        {
          "internalType": "uint256",
          "name": "minAmountOut",
          "type": "uint256"
        },
        {
          "internalType": "uint256",
          "name": "deadline",
          "type": "uint256"
        }
      ],
      "name": "swapBtoA",
      "outputs": [],
      "stateMutability": "nonpayable",
      "type": "function"
    },
    {
      "inputs": [],
      "name": "tokenA",
      "outputs": [
        {
          "internalType": "contract IERC20",
          "name": "",
          "type": "address"
        }
      ],
      "stateMutability": "view",
      "type": "function"
    },
    {
      "inputs": [],
      "name": "tokenB",
      "outputs": [
        {
          "internalType": "contract IERC20",
          "name": "",
          "type": "address"
        }
      ],
      "stateMutability": "view",
      "type": "function"
    },
    {
      "inputs": [
        {
          "internalType": "address",
          "name": "newOwner",
          "type": "address"
        }
      ],
      "name": "transferOwnership",
      "outputs": [],
      "stateMutability": "nonpayable",
      "type": "function"
    }
  ],
  "bytecode": "0x60c060405234801561001057600080fd5b5060405161184538038061184583398181016040528101906100329190610326565b33600073ffffffffffffffffffffffffffffffffffffffff168173ffffffffffffffffffffffffffffffffffffffff16036100a55760006040517f1e4fbdf700000000000000000000000000000000000000000000000000000000815260040161009c9190610375565b60405180910390fd5b6100b4816101ff60201b60201c565b5060018081905550600073ffffffffffffffffffffffffffffffffffffffff168273ffffffffffffffffffffffffffffffffffffffff1614806101235750600073ffffffffffffffffffffffffffffffffffffffff168173ffffffffffffffffffffffffffffffffffffffff16145b8061015957508073ffffffffffffffffffffffffffffffffffffffff168273ffffffffffffffffffffffffffffffffffffffff16145b15610190576040517fc1ab6dc100000000000000000000000000000000000000000000000000000000815260040160405180910390fd5b8173ffffffffffffffffffffffffffffffffffffffff1660808173ffffffffffffffffffffffffffffffffffffffff16815250508073ffffffffffffffffffffffffffffffffffffffff1660a08173ffffffffffffffffffffffffffffffffffffffff16815250505050610390565b60008060009054906101000a900473ffffffffffffffffffffffffffffffffffffffff169050816000806101000a81548173ffffffffffffffffffffffffffffffffffffffff021916908373ffffffffffffffffffffffffffffffffffffffff1602179055508173ffffffffffffffffffffffffffffffffffffffff168173ffffffffffffffffffffffffffffffffffffffff167f8be0079c531659141344cd1fd0a4f28419497f9722a3daafe3b4186f6b6457e060405160405180910390a35050565b600080fd5b600073ffffffffffffffffffffffffffffffffffffffff82169050919050565b60006102f3826102c8565b9050919050565b610303816102e8565b811461030e57600080fd5b50565b600081519050610320816102fa565b92915050565b6000806040838503121561033d5761033c6102c3565b5b600061034b85828601610311565b925050602061035c85828601610311565b9150509250929050565b61036f816102e8565b82525050565b600060208201905061038a6000830184610366565b92915050565b60805160a05161143c610409600039600081816103db0152818161047c01528181610679015281816107180152818161095301528181610b4e0152610cf701526000818161031801528181610371015281816105a60152818161074f015281816108b201528181610c210152610cc0015261143c6000f3fe608060405234801561001057600080fd5b50600436106100b45760003560e01c80638da5cb5b116100715780638da5cb5b1461017d5780639ba484591461019b5780639cd441da146101b7578063c6d4fa7d146101e8578063dc5fa6c514610204578063f2fde38b14610222576100b4565b8063054d50d4146100b95780630fc63d10146100e957806319e36f3b1461010757806341976e09146101255780635f64b55b14610155578063715018a614610173575b600080fd5b6100d360048036038101906100ce9190610ff3565b61023e565b6040516100e09190611055565b60405180910390f35b6100f1610316565b6040516100fe91906110ef565b60405180910390f35b61010f61033a565b60405161011c9190611055565b60405180910390f35b61013f600480360381019061013a9190611148565b610340565b60405161014c9190611055565b60405180910390f35b61015d61047a565b60405161016a91906110ef565b60405180910390f35b61017b61049e565b005b6101856104b2565b6040516101929190611184565b60405180910390f35b6101b560048036038101906101b09190610ff3565b6104db565b005b6101d160048036038101906101cc919061119f565b6107e2565b6040516101df9291906111df565b60405180910390f35b61020260048036038101906101fd9190610ff3565b610a83565b005b61020c610d8a565b6040516102199190611055565b60405180910390f35b61023c60048036038101906102379190611148565b610d90565b005b6000808403610279576040517f1f2a200500000000000000000000000000000000000000000000000000000000815260040160405180910390fd5b60008314806102885750600082145b156102bf576040517fbb55fd2700000000000000000000000000000000000000000000000000000000815260040160405180910390fd5b60006103e5856102cf9190611237565b9050600083826102df9190611237565b90506000826103e8876102f29190611237565b6102fc9190611279565b9050808261030a91906112dc565b93505050509392505050565b7f000000000000000000000000000000000000000000000000000000000000000081565b60035481565b600080600254148061035457506000600354145b156103625760009050610475565b6000670de0b6b3a764000090507f000000000000000000000000000000000000000000000000000000000000000073ffffffffffffffffffffffffffffffffffffffff168373ffffffffffffffffffffffffffffffffffffffff16036103d9576103d18160025460035461023e565b915050610475565b7f000000000000000000000000000000000000000000000000000000000000000073ffffffffffffffffffffffffffffffffffffffff168373ffffffffffffffffffffffffffffffffffffffff16036104435761043b8160035460025461023e565b915050610475565b6040517fc1ab6dc100000000000000000000000000000000000000000000000000000000815260040160405180910390fd5b919050565b7f000000000000000000000000000000000000000000000000000000000000000081565b6104a6610e16565b6104b06000610e9d565b565b60008060009054906101000a900473ffffffffffffffffffffffffffffffffffffffff16905090565b6104e3610f61565b8042111561051d576040517f559895a300000000000000000000000000000000000000000000000000000000815260040160405180910390fd5b60008303610557576040517f1f2a200500000000000000000000000000000000000000000000000000000000815260040160405180910390fd5b60006105688460025460035461023e565b9050828110156105a4576040517fe52970aa00000000000000000000000000000000000000000000000000000000815260040160405180910390fd5b7f000000000000000000000000000000000000000000000000000000000000000073ffffffffffffffffffffffffffffffffffffffff166323b872dd3330876040518463ffffffff1660e01b81526004016106019392919061130d565b6020604051808303816000875af1158015610620573d6000803e3d6000fd5b505050506040513d601f19601f82011682018060405250810190610644919061137c565b5083600260008282546106579190611279565b92505081905550806003600082825461067091906113a9565b925050819055507f000000000000000000000000000000000000000000000000000000000000000073ffffffffffffffffffffffffffffffffffffffff1663a9059cbb33836040518363ffffffff1660e01b81526004016106d29291906113dd565b6020604051808303816000875af11580156106f1573d6000803e3d6000fd5b505050506040513d601f19601f82011682018060405250810190610715919061137c565b507f000000000000000000000000000000000000000000000000000000000000000073ffffffffffffffffffffffffffffffffffffffff167f000000000000000000000000000000000000000000000000000000000000000073ffffffffffffffffffffffffffffffffffffffff163373ffffffffffffffffffffffffffffffffffffffff167f053d794b2310b8d186a24ae24a65ee066983a52a6efa6bd3df09a7601a3cb4f387856040516107cc9291906111df565b60405180910390a4506107dd610fa7565b505050565b6000806107ed610f61565b6000600254118061080057506000600354115b15610863576000600254600354866108189190611237565b61082291906112dc565b90508381116108365784925080915061085d565b6000600354600254866108499190611237565b61085391906112dc565b9050809350849250505b5061086a565b8391508290505b60008214806108795750600081145b156108b0576040517f1f2a200500000000000000000000000000000000000000000000000000000000815260040160405180910390fd5b7f000000000000000000000000000000000000000000000000000000000000000073ffffffffffffffffffffffffffffffffffffffff166323b872dd3330856040518463ffffffff1660e01b815260040161090d9392919061130d565b6020604051808303816000875af115801561092c573d6000803e3d6000fd5b505050506040513d601f19601f82011682018060405250810190610950919061137c565b507f000000000000000000000000000000000000000000000000000000000000000073ffffffffffffffffffffffffffffffffffffffff166323b872dd3330846040518463ffffffff1660e01b81526004016109ae9392919061130d565b6020604051808303816000875af11580156109cd573d6000803e3d6000fd5b505050506040513d601f19601f820116820180604052508101906109f1919061137c565b508160026000828254610a049190611279565b925050819055508060036000828254610a1d9190611279565b925050819055503373ffffffffffffffffffffffffffffffffffffffff167fac1d76749e5447b7b16f5ab61447e1bd502f3bb4807af3b28e620d1700a6ee458383604051610a6c9291906111df565b60405180910390a2610a7c610fa7565b9250929050565b610a8b610f61565b80421115610ac5576040517f559895a300000000000000000000000000000000000000000000000000000000815260040160405180910390fd5b60008303610aff576040517f1f2a200500000000000000000000000000000000000000000000000000000000815260040160405180910390fd5b6000610b108460035460025461023e565b905082811015610b4c576040517fe52970aa00000000000000000000000000000000000000000000000000000000815260040160405180910390fd5b7f000000000000000000000000000000000000000000000000000000000000000073ffffffffffffffffffffffffffffffffffffffff166323b872dd3330876040518463ffffffff1660e01b8152600401610ba99392919061130d565b6020604051808303816000875af1158015610bc8573d6000803e3d6000fd5b505050506040513d601f19601f82011682018060405250810190610bec919061137c565b508360036000828254610bff9190611279565b925050819055508060026000828254610c1891906113a9565b925050819055507f000000000000000000000000000000000000000000000000000000000000000073ffffffffffffffffffffffffffffffffffffffff1663a9059cbb33836040518363ffffffff1660e01b8152600401610c7a9291906113dd565b6020604051808303816000875af1158015610c99573d6000803e3d6000fd5b505050506040513d601f19601f82011682018060405250810190610cbd919061137c565b507f000000000000000000000000000000000000000000000000000000000000000073ffffffffffffffffffffffffffffffffffffffff167f000000000000000000000000000000000000000000000000000000000000000073ffffffffffffffffffffffffffffffffffffffff163373ffffffffffffffffffffffffffffffffffffffff167f053d794b2310b8d186a24ae24a65ee066983a52a6efa6bd3df09a7601a3cb4f38785604051610d749291906111df565b60405180910390a450610d85610fa7565b505050565b60025481565b610d98610e16565b600073ffffffffffffffffffffffffffffffffffffffff168173ffffffffffffffffffffffffffffffffffffffff1603610e0a5760006040517f1e4fbdf7000000000000000000000000000000000000000000000000000000008152600401610e019190611184565b60405180910390fd5b610e1381610e9d565b50565b610e1e610fb0565b73ffffffffffffffffffffffffffffffffffffffff16610e3c6104b2565b73ffffffffffffffffffffffffffffffffffffffff1614610e9b57610e5f610fb0565b6040517f118cdaa7000000000000000000000000000000000000000000000000000000008152600401610e929190611184565b60405180910390fd5b565b60008060009054906101000a900473ffffffffffffffffffffffffffffffffffffffff169050816000806101000a81548173ffffffffffffffffffffffffffffffffffffffff021916908373ffffffffffffffffffffffffffffffffffffffff1602179055508173ffffffffffffffffffffffffffffffffffffffff168173ffffffffffffffffffffffffffffffffffffffff167f8be0079c531659141344cd1fd0a4f28419497f9722a3daafe3b4186f6b6457e060405160405180910390a35050565b600260015403610f9d576040517f3ee5aeb500000000000000000000000000000000000000000000000000000000815260040160405180910390fd5b6002600181905550565b60018081905550565b600033905090565b600080fd5b6000819050919050565b610fd081610fbd565b8114610fdb57600080fd5b50565b600081359050610fed81610fc7565b92915050565b60008060006060848603121561100c5761100b610fb8565b5b600061101a86828701610fde565b935050602061102b86828701610fde565b925050604061103c86828701610fde565b9150509250925092565b61104f81610fbd565b82525050565b600060208201905061106a6000830184611046565b92915050565b600073ffffffffffffffffffffffffffffffffffffffff82169050919050565b6000819050919050565b60006110b56110b06110ab84611070565b611090565b611070565b9050919050565b60006110c78261109a565b9050919050565b60006110d9826110bc565b9050919050565b6110e9816110ce565b82525050565b600060208201905061110460008301846110e0565b92915050565b600061111582611070565b9050919050565b6111258161110a565b811461113057600080fd5b50565b6000813590506111428161111c565b92915050565b60006020828403121561115e5761115d610fb8565b5b600061116c84828501611133565b91505092915050565b61117e8161110a565b82525050565b60006020820190506111996000830184611175565b92915050565b600080604083850312156111b6576111b5610fb8565b5b60006111c485828601610fde565b92505060206111d585828601610fde565b9150509250929050565b60006040820190506111f46000830185611046565b6112016020830184611046565b9392505050565b7f4e487b7100000000000000000000000000000000000000000000000000000000600052601160045260246000fd5b600061124282610fbd565b915061124d83610fbd565b925082820261125b81610fbd565b9150828204841483151761127257611271611208565b5b5092915050565b600061128482610fbd565b915061128f83610fbd565b92508282019050808211156112a7576112a6611208565b5b92915050565b7f4e487b7100000000000000000000000000000000000000000000000000000000600052601260045260246000fd5b60006112e782610fbd565b91506112f283610fbd565b925082611302576113016112ad565b5b828204905092915050565b60006060820190506113226000830186611175565b61132f6020830185611175565b61133c6040830184611046565b949350505050565b60008115159050919050565b61135981611344565b811461136457600080fd5b50565b60008151905061137681611350565b92915050565b60006020828403121561139257611391610fb8565b5b60006113a084828501611367565b91505092915050565b60006113b482610fbd565b91506113bf83610fbd565b92508282039050818111156113d7576113d6611208565b5b92915050565b60006040820190506113f26000830185611175565b6113ff6020830184611046565b939250505056fea26469706673582212205bc5aee8bbc32ae50f117bdeb674600fa0c87fb2c6dfaed60bebc2dd4213834764736f6c634300081c0033",
  "linkReferences": {},
  "deployedLinkReferences": {}
}